{
  "address": "0xF557C95F1D8806Fd103aD550E512e7acf75Bd2ec",
  "abi": [
    {
      "inputs": [
        {
          "internalType": "address",
          "name": "_signer",
          "type": "address"
        }
      ],
      "stateMutability": "nonpayable",
      "type": "constructor"
    },
    {
      "inputs": [],
      "name": "AlreadyMinted",
      "type": "error"
    },
    {
      "inputs": [],
      "name": "ECDSAInvalidSignature",
      "type": "error"
    },
    {
      "inputs": [
        {
          "internalType": "uint256",
          "name": "length",
          "type": "uint256"
        }
      ],
      "name": "ECDSAInvalidSignatureLength",
      "type": "error"
    },
    {
      "inputs": [
        {
          "internalType": "bytes32",
          "name": "s",
          "type": "bytes32"
        }
      ],
      "name": "ECDSAInvalidSignatureS",
      "type": "error"
    },
    {
      "inputs": [
        {
          "internalType": "address",
          "name": "sender",
          "type": "address"
        },
        {
          "internalType": "uint256",
          "name": "tokenId",
          "type": "uint256"
        },
        {
          "internalType": "address",
          "name": "owner",
          "type": "address"
        }
      ],
      "name": "ERC721IncorrectOwner",
      "type": "error"
    },
    {
      "inputs": [
        {
          "internalType": "address",
          "name": "operator",
          "type": "address"
        },
        {
          "internalType": "uint256",
          "name": "tokenId",
          "type": "uint256"
        }
      ],
      "name": "ERC721InsufficientApproval",
      "type": "error"
    },
    {
      "inputs": [
        {
          "internalType": "address",
          "name": "approver",
          "type": "address"
        }
      ],
      "name": "ERC721InvalidApprover",
      "type": "error"
    },
    {
      "inputs": [
        {
          "internalType": "address",
          "name": "operator",
          "type": "address"
        }
      ],
      "name": "ERC721InvalidOperator",
      "type": "error"
    },
    {
      "inputs": [
        {
          "internalType": "address",
          "name": "owner",
          "type": "address"
        }
      ],
      "name": "ERC721InvalidOwner",
      "type": "error"
    },
    {
      "inputs": [
        {
          "internalType": "address",
          "name": "receiver",
          "type": "address"
        }
      ],
      "name": "ERC721InvalidReceiver",
      "type": "error"
    },
    {
      "inputs": [
        {
          "internalType": "address",
          "name": "sender",
          "type": "address"
        }
      ],
      "name": "ERC721InvalidSender",
      "type": "error"
    },
    {
      "inputs": [
        {
          "internalType": "uint256",
          "name": "tokenId",
          "type": "uint256"
        }
      ],
      "name": "ERC721NonexistentToken",
      "type": "error"
    },
    {
      "inputs": [],
      "name": "InvalidSignature",
      "type": "error"
    },
    {
      "anonymous": false,
      "inputs": [
        {
          "indexed": true,
          "internalType": "address",
          "name": "owner",
          "type": "address"
        },
        {
          "indexed": true,
          "internalType": "address",
          "name": "approved",
          "type": "address"
        },
        {
          "indexed": true,
          "internalType": "uint256",
          "name": "tokenId",
          "type": "uint256"
        }
      ],
      "name": "Approval",
      "type": "event"
    },
    {
      "anonymous": false,
      "inputs": [
        {
          "indexed": true,
          "internalType": "address",
          "name": "owner",
          "type": "address"
        },
        {
          "indexed": true,
          "internalType": "address",
          "name": "operator",
          "type": "address"
        },
        {
          "indexed": false,
          "internalType": "bool",
          "name": "approved",
          "type": "bool"
        }
      ],
      "name": "ApprovalForAll",
      "type": "event"
    },
    {
      "anonymous": false,
      "inputs": [
        {
          "indexed": true,
          "internalType": "address",
          "name": "from",
          "type": "address"
        },
        {
          "indexed": true,
          "internalType": "address",
          "name": "to",
          "type": "address"
        },
        {
          "indexed": true,
          "internalType": "uint256",
          "name": "tokenId",
          "type": "uint256"
        }
      ],
      "name": "Transfer",
      "type": "event"
    },
    {
      "inputs": [
        {
          "internalType": "address",
          "name": "to",
          "type": "address"
        },
        {
          "internalType": "uint256",
          "name": "tokenId",
          "type": "uint256"
        }
      ],
      "name": "approve",
      "outputs": [],
      "stateMutability": "nonpayable",
      "type": "function"
    },
    {
      "inputs": [
        {
          "internalType": "address",
          "name": "owner",
          "type": "address"
        }
      ],
      "name": "balanceOf",
      "outputs": [
        {
          "internalType": "uint256",
          "name": "",
          "type": "uint256"
        }
      ],
      "stateMutability": "view",
      "type": "function"
    },
    {
      "inputs": [
        {
          "internalType": "uint256",
          "name": "tokenId",
          "type": "uint256"
        }
      ],
      "name": "getApproved",
      "outputs": [
        {
          "internalType": "address",
          "name": "",
          "type": "address"
        }
      ],
      "stateMutability": "view",
      "type": "function"
    },
    {
      "inputs": [
        {
          "internalType": "address",
          "name": "_account",
          "type": "address"
        },
        {
          "internalType": "uint256",
          "name": "_tokenId",
          "type": "uint256"
        }
      ],
      "name": "getMessageHash",
      "outputs": [
        {
          "internalType": "bytes32",
          "name": "",
          "type": "bytes32"
        }
      ],
      "stateMutability": "pure",
      "type": "function"
    },
    {
      "inputs": [
        {
          "internalType": "address",
          "name": "owner",
          "type": "address"
        },
        {
          "internalType": "address",
          "name": "operator",
          "type": "address"
        }
      ],
      "name": "isApprovedForAll",
      "outputs": [
        {
          "internalType": "bool",
          "name": "",
          "type": "bool"
        }
      ],
      "stateMutability": "view",
      "type": "function"
    },
    {
      "inputs": [
        {
          "internalType": "address",
          "name": "_account",
          "type": "address"
        },
        {
          "internalType": "uint256",
          "name": "_tokenId",
          "type": "uint256"
        },
        {
          "internalType": "bytes",
          "name": "_signature",
          "type": "bytes"
        }
      ],
      "name": "mint",
      "outputs": [],
      "stateMutability": "nonpayable",
      "type": "function"
    },
    {
      "inputs": [
        {
          "internalType": "address",
          "name": "",
          "type": "address"
        }
      ],
      "name": "mintedAddress",
      "outputs": [
        {
          "internalType": "bool",
          "name": "",
          "type": "bool"
        }
      ],
      "stateMutability": "view",
      "type": "function"
    },
    {
      "inputs": [],
      "name": "name",
      "outputs": [
        {
          "internalType": "string",
          "name": "",
          "type": "string"
        }
      ],
      "stateMutability": "view",
      "type": "function"
    },
    {
      "inputs": [
        {
          "internalType": "uint256",
          "name": "tokenId",
          "type": "uint256"
        }
      ],
      "name": "ownerOf",
      "outputs": [
        {
          "internalType": "address",
          "name": "",
          "type": "address"
        }
      ],
      "stateMutability": "view",
      "type": "function"
    },
    {
      "inputs": [
        {
          "internalType": "address",
          "name": "from",
          "type": "address"
        },
        {
          "internalType": "address",
          "name": "to",
          "type": "address"
        },
        {
          "internalType": "uint256",
          "name": "tokenId",
          "type": "uint256"
        }
      ],
      "name": "safeTransferFrom",
      "outputs": [],
      "stateMutability": "nonpayable",
      "type": "function"
    },
    {
      "inputs": [
        {
          "internalType": "address",
          "name": "from",
          "type": "address"
        },
        {
          "internalType": "address",
          "name": "to",
          "type": "address"
        },
        {
          "internalType": "uint256",
          "name": "tokenId",
          "type": "uint256"
        },
        {
          "internalType": "bytes",
          "name": "data",
          "type": "bytes"
        }
      ],
      "name": "safeTransferFrom",
      "outputs": [],
      "stateMutability": "nonpayable",
      "type": "function"
    },
    {
      "inputs": [
        {
          "internalType": "address",
          "name": "operator",
          "type": "address"
        },
        {
          "internalType": "bool",
          "name": "approved",
          "type": "bool"
        }
      ],
      "name": "setApprovalForAll",
      "outputs": [],
      "stateMutability": "nonpayable",
      "type": "function"
    },
    {
      "inputs": [],
      "name": "signer",
      "outputs": [
        {
          "internalType": "address",
          "name": "",
          "type": "address"
        }
      ],
      "stateMutability": "view",
      "type": "function"
    },
    {
      "inputs": [
        {
          "internalType": "bytes4",
          "name": "interfaceId",
          "type": "bytes4"
        }
      ],
      "name": "supportsInterface",
      "outputs": [
        {
          "internalType": "bool",
          "name": "",
          "type": "bool"
        }
      ],
      "stateMutability": "view",
      "type": "function"
    },
    {
      "inputs": [],
      "name": "symbol",
      "outputs": [
        {
          "internalType": "string",
          "name": "",
          "type": "string"
        }
      ],
      "stateMutability": "view",
      "type": "function"
    },
    {
      "inputs": [
        {
          "internalType": "uint256",
          "name": "tokenId",
          "type": "uint256"
        }
      ],
      "name": "tokenURI",
      "outputs": [
        {
          "internalType": "string",
          "name": "",
          "type": "string"
        }
      ],
      "stateMutability": "view",
      "type": "function"
    },
    {
      "inputs": [
        {
          "internalType": "address",
          "name": "from",
          "type": "address"
        },
        {
          "internalType": "address",
          "name": "to",
          "type": "address"
        },
        {
          "internalType": "uint256",
          "name": "tokenId",
          "type": "uint256"
        }
      ],
      "name": "transferFrom",
      "outputs": [],
      "stateMutability": "nonpayable",
      "type": "function"
    },
    {
      "inputs": [
        {
          "internalType": "bytes32",
          "name": "_msgHash",
          "type": "bytes32"
        },
        {
          "internalType": "bytes",
          "name": "_signature",
          "type": "bytes"
        }
      ],
      "name": "verify",
      "outputs": [
        {
          "internalType": "bool",
          "name": "",
          "type": "bool"
        }
      ],
      "stateMutability": "view",
      "type": "function"
    }
  ],
  "transactionHash": "0x9b5f7be90a966d59fcdd62170fa5eca4c03b2b7d36cba74ba23d92ee63f97886",
  "args": [
    "0xe16C1623c1AA7D919cd2241d8b36d9E79C1Be2A2"
  ],
  "numDeployments": 1,
  "solcInputHash": "2d27c2046bcbc01b47e92743a9d3c42e",
  "bytecode": "0x60a06040523480156200001157600080fd5b50604051620016a3380380620016a38339810160408190526200003491620000ab565b6040518060400160405280600c81526020016b14da59db985d1d5c9953919560a21b8152506040518060400160405280600481526020016314d3919560e21b815250816000908162000087919062000182565b50600162000096828262000182565b5050506001600160a01b03166080526200024e565b600060208284031215620000be57600080fd5b81516001600160a01b0381168114620000d657600080fd5b9392505050565b634e487b7160e01b600052604160045260246000fd5b600181811c908216806200010857607f821691505b6020821081036200012957634e487b7160e01b600052602260045260246000fd5b50919050565b601f8211156200017d57600081815260208120601f850160051c81016020861015620001585750805b601f850160051c820191505b81811015620001795782815560010162000164565b5050505b505050565b81516001600160401b038111156200019e576200019e620000dd565b620001b681620001af8454620000f3565b846200012f565b602080601f831160018114620001ee5760008415620001d55750858301515b600019600386901b1c1916600185901b17855562000179565b600085815260208120601f198616915b828110156200021f57888601518255948401946001909101908401620001fe565b50858210156200023e5787850151600019600388901b60f8161c191681555b5050505050600190811b01905550565b608051611432620002716000396000818161019d015261047901526114326000f3fe608060405234801561001057600080fd5b50600436106101165760003560e01c8063630303c6116100a257806395d89b411161007157806395d89b4114610275578063a22cb4651461027d578063b88d4fde14610290578063c87b56dd146102a3578063e985e9c5146102b657600080fd5b8063630303c6146102195780636352211e1461023c57806370a082311461024f57806394d008ef1461026257600080fd5b8063238ac933116100e9578063238ac9331461019857806323b872dd146101bf578063258ae582146101d257806342842e0e146101e5578063512c91df146101f857600080fd5b806301ffc9a71461011b57806306fdde0314610143578063081812fc14610158578063095ea7b314610183575b600080fd5b61012e610129366004610fd5565b6102c9565b60405190151581526020015b60405180910390f35b61014b61031b565b60405161013a9190611042565b61016b610166366004611055565b6103ad565b6040516001600160a01b03909116815260200161013a565b61019661019136600461108a565b6103d6565b005b61016b7f000000000000000000000000000000000000000000000000000000000000000081565b6101966101cd3660046110b4565b6103e5565b61012e6101e0366004611193565b610475565b6101966101f33660046110b4565b6104bc565b61020b61020636600461108a565b6104dc565b60405190815260200161013a565b61012e6102273660046111da565b60066020526000908152604090205460ff1681565b61016b61024a366004611055565b610523565b61020b61025d3660046111da565b61052e565b6101966102703660046111f5565b610576565b61014b610649565b61019661028b36600461124c565b610658565b61019661029e366004611288565b610663565b61014b6102b1366004611055565b61067a565b61012e6102c43660046112f0565b6106ef565b60006001600160e01b031982166380ac58cd60e01b14806102fa57506001600160e01b03198216635b5e139f60e01b145b8061031557506301ffc9a760e01b6001600160e01b03198316145b92915050565b60606000805461032a90611323565b80601f016020809104026020016040519081016040528092919081815260200182805461035690611323565b80156103a35780601f10610378576101008083540402835291602001916103a3565b820191906000526020600020905b81548152906001019060200180831161038657829003601f168201915b5050505050905090565b60006103b88261071d565b506000828152600460205260409020546001600160a01b0316610315565b6103e1828233610756565b5050565b6001600160a01b03821661041457604051633250574960e11b8152600060048201526024015b60405180910390fd5b6000610421838333610763565b9050836001600160a01b0316816001600160a01b03161461046f576040516364283d7b60e01b81526001600160a01b038086166004830152602482018490528216604482015260640161040b565b50505050565b60007f00000000000000000000000000000000000000000000000000000000000000006001600160a01b03166104ab848461085c565b6001600160a01b0316149392505050565b6104d783838360405180602001604052806000815250610663565b505050565b6040516bffffffffffffffffffffffff19606084901b1660208201526034810182905260009060540160405160208183030381529060405280519060200120905092915050565b60006103158261071d565b60006001600160a01b03821661055a576040516322718ad960e21b81526000600482015260240161040b565b506001600160a01b031660009081526003602052604090205490565b600061058284846104dc565b7f19457468657265756d205369676e6564204d6573736167653a0a3332000000006000908152601c829052603c90209091506105be8184610475565b6105db57604051638baa579f60e01b815260040160405180910390fd5b6001600160a01b03851660009081526006602052604090205460ff161561061557604051631bbdf5c560e31b815260040160405180910390fd5b6001600160a01b0385166000908152600660205260409020805460ff191660011790556106428585610886565b5050505050565b60606001805461032a90611323565b6103e13383836108eb565b61066e8484846103e5565b61046f8484848461098a565b60606106858261071d565b50600061069d60408051602081019091526000815290565b905060008151116106bd57604051806020016040528060008152506106e8565b806106c784610aac565b6040516020016106d892919061135d565b6040516020818303038152906040525b9392505050565b6001600160a01b03918216600090815260056020908152604080832093909416825291909152205460ff1690565b6000818152600260205260408120546001600160a01b03168061031557604051637e27328960e01b81526004810184905260240161040b565b6104d78383836001610b3f565b6000828152600260205260408120546001600160a01b039081169083161561079057610790818486610c45565b6001600160a01b038116156107ce576107ad600085600080610b3f565b6001600160a01b038116600090815260036020526040902080546000190190555b6001600160a01b038516156107fd576001600160a01b0385166000908152600360205260409020805460010190555b60008481526002602052604080822080546001600160a01b0319166001600160a01b0389811691821790925591518793918516917fddf252ad1be2c89b69c2b068fc378daa952ba7f163c4a11628f55a4df523b3ef91a4949350505050565b60008060008061086c8686610ca9565b92509250925061087c8282610cf6565b5090949350505050565b6001600160a01b0382166108b057604051633250574960e11b81526000600482015260240161040b565b60006108be83836000610763565b90506001600160a01b038116156104d7576040516339e3563760e11b81526000600482015260240161040b565b6001600160a01b03821661091d57604051630b61174360e31b81526001600160a01b038316600482015260240161040b565b6001600160a01b03838116600081815260056020908152604080832094871680845294825291829020805460ff191686151590811790915591519182527f17307eab39ab6107e8899845ad3d59bd9653f200f220920489ca2b5937696c31910160405180910390a3505050565b6001600160a01b0383163b1561046f57604051630a85bd0160e11b81526001600160a01b0384169063150b7a02906109cc90339088908790879060040161138c565b6020604051808303816000875af1925050508015610a07575060408051601f3d908101601f19168201909252610a04918101906113c9565b60015b610a70573d808015610a35576040519150601f19603f3d011682016040523d82523d6000602084013e610a3a565b606091505b508051600003610a6857604051633250574960e11b81526001600160a01b038516600482015260240161040b565b805181602001fd5b6001600160e01b03198116630a85bd0160e11b1461064257604051633250574960e11b81526001600160a01b038516600482015260240161040b565b60606000610ab983610daf565b600101905060008167ffffffffffffffff811115610ad957610ad96110f0565b6040519080825280601f01601f191660200182016040528015610b03576020820181803683370190505b5090508181016020015b600019016f181899199a1a9b1b9c1cb0b131b232b360811b600a86061a8153600a8504945084610b0d57509392505050565b8080610b5357506001600160a01b03821615155b15610c15576000610b638461071d565b90506001600160a01b03831615801590610b8f5750826001600160a01b0316816001600160a01b031614155b8015610ba25750610ba081846106ef565b155b15610bcb5760405163a9fbf51f60e01b81526001600160a01b038416600482015260240161040b565b8115610c135783856001600160a01b0316826001600160a01b03167f8c5be1e5ebec7d5bd14f71427d1e84f3dd0314c0f7b2291e5b200ac8c7c3b92560405160405180910390a45b505b5050600090815260046020526040902080546001600160a01b0319166001600160a01b0392909216919091179055565b610c50838383610e87565b6104d7576001600160a01b038316610c7e57604051637e27328960e01b81526004810182905260240161040b565b60405163177e802f60e01b81526001600160a01b03831660048201526024810182905260440161040b565b60008060008351604103610ce35760208401516040850151606086015160001a610cd588828585610eed565b955095509550505050610cef565b50508151600091506002905b9250925092565b6000826003811115610d0a57610d0a6113e6565b03610d13575050565b6001826003811115610d2757610d276113e6565b03610d455760405163f645eedf60e01b815260040160405180910390fd5b6002826003811115610d5957610d596113e6565b03610d7a5760405163fce698f760e01b81526004810182905260240161040b565b6003826003811115610d8e57610d8e6113e6565b036103e1576040516335e2f38360e21b81526004810182905260240161040b565b60008072184f03e93ff9f4daa797ed6e38ed64bf6a1f0160401b8310610dee5772184f03e93ff9f4daa797ed6e38ed64bf6a1f0160401b830492506040015b6d04ee2d6d415b85acef81000000008310610e1a576d04ee2d6d415b85acef8100000000830492506020015b662386f26fc100008310610e3857662386f26fc10000830492506010015b6305f5e1008310610e50576305f5e100830492506008015b6127108310610e6457612710830492506004015b60648310610e76576064830492506002015b600a83106103155760010192915050565b60006001600160a01b03831615801590610ee55750826001600160a01b0316846001600160a01b03161480610ec15750610ec184846106ef565b80610ee557506000828152600460205260409020546001600160a01b038481169116145b949350505050565b600080807f7fffffffffffffffffffffffffffffff5d576e7357a4501ddfe92f46681b20a0841115610f285750600091506003905082610fb2565b604080516000808252602082018084528a905260ff891692820192909252606081018790526080810186905260019060a0016020604051602081039080840390855afa158015610f7c573d6000803e3d6000fd5b5050604051601f1901519150506001600160a01b038116610fa857506000925060019150829050610fb2565b9250600091508190505b9450945094915050565b6001600160e01b031981168114610fd257600080fd5b50565b600060208284031215610fe757600080fd5b81356106e881610fbc565b60005b8381101561100d578181015183820152602001610ff5565b50506000910152565b6000815180845261102e816020860160208601610ff2565b601f01601f19169290920160200192915050565b6020815260006106e86020830184611016565b60006020828403121561106757600080fd5b5035919050565b80356001600160a01b038116811461108557600080fd5b919050565b6000806040838503121561109d57600080fd5b6110a68361106e565b946020939093013593505050565b6000806000606084860312156110c957600080fd5b6110d28461106e565b92506110e06020850161106e565b9150604084013590509250925092565b634e487b7160e01b600052604160045260246000fd5b600082601f83011261111757600080fd5b813567ffffffffffffffff80821115611132576111326110f0565b604051601f8301601f19908116603f0116810190828211818310171561115a5761115a6110f0565b8160405283815286602085880101111561117357600080fd5b836020870160208301376000602085830101528094505050505092915050565b600080604083850312156111a657600080fd5b82359150602083013567ffffffffffffffff8111156111c457600080fd5b6111d085828601611106565b9150509250929050565b6000602082840312156111ec57600080fd5b6106e88261106e565b60008060006060848603121561120a57600080fd5b6112138461106e565b925060208401359150604084013567ffffffffffffffff81111561123657600080fd5b61124286828701611106565b9150509250925092565b6000806040838503121561125f57600080fd5b6112688361106e565b91506020830135801515811461127d57600080fd5b809150509250929050565b6000806000806080858703121561129e57600080fd5b6112a78561106e565b93506112b56020860161106e565b925060408501359150606085013567ffffffffffffffff8111156112d857600080fd5b6112e487828801611106565b91505092959194509250565b6000806040838503121561130357600080fd5b61130c8361106e565b915061131a6020840161106e565b90509250929050565b600181811c9082168061133757607f821691505b60208210810361135757634e487b7160e01b600052602260045260246000fd5b50919050565b6000835161136f818460208801610ff2565b835190830190611383818360208801610ff2565b01949350505050565b6001600160a01b03858116825284166020820152604081018390526080606082018190526000906113bf90830184611016565b9695505050505050565b6000602082840312156113db57600080fd5b81516106e881610fbc565b634e487b7160e01b600052602160045260246000fdfea26469706673582212201abf3a948bbe58c01d7f3aa3a548b6105a950272bf19e43c3aa675cca8908f5e64736f6c63430008140033",
  "devdoc": {
    "errors": {
      "ECDSAInvalidSignature()": [
        {
          "details": "The signature derives the `address(0)`."
        }
      ],
      "ECDSAInvalidSignatureLength(uint256)": [
        {
          "details": "The signature has an invalid length."
        }
      ],
      "ECDSAInvalidSignatureS(bytes32)": [
        {
          "details": "The signature has an S value that is in the upper half order."
        }
      ],
      "ERC721IncorrectOwner(address,uint256,address)": [
        {
          "details": "Indicates an error related to the ownership over a particular token. Used in transfers.",
          "params": {
            "owner": "Address of the current owner of a token.",
            "sender": "Address whose tokens are being transferred.",
            "tokenId": "Identifier number of a token."
          }
        }
      ],
      "ERC721InsufficientApproval(address,uint256)": [
        {
          "details": "Indicates a failure with the `operator`s approval. Used in transfers.",
          "params": {
            "operator": "Address that may be allowed to operate on tokens without being their owner.",
            "tokenId": "Identifier number of a token."
          }
        }
      ],
      "ERC721InvalidApprover(address)": [
        {
          "details": "Indicates a failure with the `approver` of a token to be approved. Used in approvals.",
          "params": {
            "approver": "Address initiating an approval operation."
          }
        }
      ],
      "ERC721InvalidOperator(address)": [
        {
          "details": "Indicates a failure with the `operator` to be approved. Used in approvals.",
          "params": {
            "operator": "Address that may be allowed to operate on tokens without being their owner."
          }
        }
      ],
      "ERC721InvalidOwner(address)": [
        {
          "details": "Indicates that an address can't be an owner. For example, `address(0)` is a forbidden owner in EIP-20. Used in balance queries.",
          "params": {
            "owner": "Address of the current owner of a token."
          }
        }
      ],
      "ERC721InvalidReceiver(address)": [
        {
          "details": "Indicates a failure with the token `receiver`. Used in transfers.",
          "params": {
            "receiver": "Address to which tokens are being transferred."
          }
        }
      ],
      "ERC721InvalidSender(address)": [
        {
          "details": "Indicates a failure with the token `sender`. Used in transfers.",
          "params": {
            "sender": "Address whose tokens are being transferred."
          }
        }
      ],
      "ERC721NonexistentToken(uint256)": [
        {
          "details": "Indicates a `tokenId` whose `owner` is the zero address.",
          "params": {
            "tokenId": "Identifier number of a token."
          }
        }
      ]
    },
    "events": {
      "Approval(address,address,uint256)": {
        "details": "Emitted when `owner` enables `approved` to manage the `tokenId` token."
      },
      "ApprovalForAll(address,address,bool)": {
        "details": "Emitted when `owner` enables or disables (`approved`) `operator` to manage all of its assets."
      },
      "Transfer(address,address,uint256)": {
        "details": "Emitted when `tokenId` token is transferred from `from` to `to`."
      }
    },
    "kind": "dev",
    "methods": {
      "approve(address,uint256)": {
        "details": "See {IERC721-approve}."
      },
      "balanceOf(address)": {
        "details": "See {IERC721-balanceOf}."
      },
      "getApproved(uint256)": {
        "details": "See {IERC721-getApproved}."
      },
      "isApprovedForAll(address,address)": {
        "details": "See {IERC721-isApprovedForAll}."
      },
      "name()": {
        "details": "See {IERC721Metadata-name}."
      },
      "ownerOf(uint256)": {
        "details": "See {IERC721-ownerOf}."
      },
      "safeTransferFrom(address,address,uint256)": {
        "details": "See {IERC721-safeTransferFrom}."
      },
      "safeTransferFrom(address,address,uint256,bytes)": {
        "details": "See {IERC721-safeTransferFrom}."
      },
      "setApprovalForAll(address,bool)": {
        "details": "See {IERC721-setApprovalForAll}."
      },
      "supportsInterface(bytes4)": {
        "details": "See {IERC165-supportsInterface}."
      },
      "symbol()": {
        "details": "See {IERC721Metadata-symbol}."
      },
      "tokenURI(uint256)": {
        "details": "See {IERC721Metadata-tokenURI}."
      },
      "transferFrom(address,address,uint256)": {
        "details": "See {IERC721-transferFrom}."
      }
    },
    "version": 1
  },
  "userdoc": {
    "kind": "user",
    "methods": {},
    "version": 1
  },
  "storageLayout": {
    "storage": [
      {
        "astId": 169,
        "contract": "contracts/SignatureNFT.sol:SignatureNFT",
        "label": "_name",
        "offset": 0,
        "slot": "0",
        "type": "t_string_storage"
      },
      {
        "astId": 171,
        "contract": "contracts/SignatureNFT.sol:SignatureNFT",
        "label": "_symbol",
        "offset": 0,
        "slot": "1",
        "type": "t_string_storage"
      },
      {
        "astId": 175,
        "contract": "contracts/SignatureNFT.sol:SignatureNFT",
        "label": "_owners",
        "offset": 0,
        "slot": "2",
        "type": "t_mapping(t_uint256,t_address)"
      },
      {
        "astId": 179,
        "contract": "contracts/SignatureNFT.sol:SignatureNFT",
        "label": "_balances",
        "offset": 0,
        "slot": "3",
        "type": "t_mapping(t_address,t_uint256)"
      },
      {
        "astId": 183,
        "contract": "contracts/SignatureNFT.sol:SignatureNFT",
        "label": "_tokenApprovals",
        "offset": 0,
        "slot": "4",
        "type": "t_mapping(t_uint256,t_address)"
      },
      {
        "astId": 189,
        "contract": "contracts/SignatureNFT.sol:SignatureNFT",
        "label": "_operatorApprovals",
        "offset": 0,
        "slot": "5",
        "type": "t_mapping(t_address,t_mapping(t_address,t_bool))"
      },
      {
        "astId": 3225,
        "contract": "contracts/SignatureNFT.sol:SignatureNFT",
        "label": "mintedAddress",
        "offset": 0,
        "slot": "6",
        "type": "t_mapping(t_address,t_bool)"
      }
    ],
    "types": {
      "t_address": {
        "encoding": "inplace",
        "label": "address",
        "numberOfBytes": "20"
      },
      "t_bool": {
        "encoding": "inplace",
        "label": "bool",
        "numberOfBytes": "1"
      },
      "t_mapping(t_address,t_bool)": {
        "encoding": "mapping",
        "key": "t_address",
        "label": "mapping(address => bool)",
        "numberOfBytes": "32",
        "value": "t_bool"
      },
      "t_mapping(t_address,t_mapping(t_address,t_bool))": {
        "encoding": "mapping",
        "key": "t_address",
        "label": "mapping(address => mapping(address => bool))",
        "numberOfBytes": "32",
        "value": "t_mapping(t_address,t_bool)"
      },
      "t_mapping(t_address,t_uint256)": {
        "encoding": "mapping",
        "key": "t_address",
        "label": "mapping(address => uint256)",
        "numberOfBytes": "32",
        "value": "t_uint256"
      },
      "t_mapping(t_uint256,t_address)": {
        "encoding": "mapping",
        "key": "t_uint256",
        "label": "mapping(uint256 => address)",
        "numberOfBytes": "32",
        "value": "t_address"
      },
      "t_string_storage": {
        "encoding": "bytes",
        "label": "string",
        "numberOfBytes": "32"
      },
      "t_uint256": {
        "encoding": "inplace",
        "label": "uint256",
        "numberOfBytes": "32"
      }
    }
  }
}